{
  "_format": "hh-sol-artifact-1",
  "contractName": "HoneyPot",
  "sourceName": "src/backend/contracts/Honey.sol",
  "abi": [
    {
      "inputs": [
        {
          "internalType": "address",
          "name": "",
          "type": "address"
        }
      ],
      "name": "blockedUsers",
      "outputs": [
        {
          "internalType": "bool",
          "name": "",
          "type": "bool"
        }
      ],
      "stateMutability": "view",
      "type": "function"
    },
    {
      "inputs": [],
      "name": "interactWithButton",
      "outputs": [],
      "stateMutability": "nonpayable",
      "type": "function"
    },
    {
      "inputs": [
        {
          "internalType": "address",
          "name": "user",
          "type": "address"
        }
      ],
      "name": "isBlocked",
      "outputs": [
        {
          "internalType": "bool",
          "name": "",
          "type": "bool"
        }
      ],
      "stateMutability": "view",
      "type": "function"
    }
  ],
  "bytecode": "0x608060405234801561001057600080fd5b50610271806100206000396000f3fe608060405234801561001057600080fd5b50600436106100415760003560e01c80632d38b2da146100465780633af2d5e714610050578063fbac395114610080575b600080fd5b61004e6100b0565b005b61006a60048036038101906100659190610193565b610109565b60405161007791906101cb565b60405180910390f35b61009a60048036038101906100959190610193565b610129565b6040516100a791906101cb565b60405180910390f35b60016000803373ffffffffffffffffffffffffffffffffffffffff1673ffffffffffffffffffffffffffffffffffffffff16815260200190815260200160002060006101000a81548160ff021916908315150217905550565b60006020528060005260406000206000915054906101000a900460ff1681565b60008060008373ffffffffffffffffffffffffffffffffffffffff1673ffffffffffffffffffffffffffffffffffffffff16815260200190815260200160002060009054906101000a900460ff169050919050565b60008135905061018d81610224565b92915050565b6000602082840312156101a557600080fd5b60006101b38482850161017e565b91505092915050565b6101c5816101f8565b82525050565b60006020820190506101e060008301846101bc565b92915050565b60006101f182610204565b9050919050565b60008115159050919050565b600073ffffffffffffffffffffffffffffffffffffffff82169050919050565b61022d816101e6565b811461023857600080fd5b5056fea2646970667358221220c6bcc9c308321d2f6383b2bad29244903fb956799089508c5cd28a597f4fe74564736f6c63430008040033",
  "linkReferences": {},
  "deployedLinkReferences": {}
}